:100000000C9472000C949A000C949A000C949A0030
:100010000C949A000C949A000C949A000C949A00F8
:100020000C949A000C949A000C949A000C943F073C
:100030000C949A000C949A000C949A000C949A00D8
:100040000C94F5060C949A000C94BB060C94800654
:100050000C949A000C949A000C949A000C949A00B8
:100060000C949A000C949A00000000070002010012
:10007000000304060000000000000000005EBCE277
:10008000613FDD83C29C7E20A3FD1F41009D23BEF6
:1000900046DB65F88C11AF32CA57E97400000000E6
:1000A000250028002B0000000000240027002A0063
:1000B00000000000230026002900040404040404B6
:1000C0000404020202020202030303030303010207
:1000D00004081020408001020408102001020408D6
:1000E00010208F0711241FBECFEFD8E0DEBFCDBF99
:1000F00011E0A0E0B1E0E4E6F9E102C005900D9264
:10010000A439B107D9F722E0A4E9B1E001C01D92FA
:10011000A037B207E1F710E0C2E7D0E004C02197B2
:10012000FE010E94AA0CC137D107C9F70E944108FD
:100130000C941A0A0C940000DC0180E0615098F0E5
:100140002D91982F9227E92FEF70F0E0E458FF4FA0
:10015000249192959F70E92FF0E0E457FF4FE491CE
:10016000822F8E27EBCF0895FC0190810180F281D0
:10017000E02DF8948181892B81832281892F8095BC
:1001800028232283A6E0B0E01197F1F72181822392
:100190008183A2E2B0E01197F1F780817894EEECD0
:1001A000F0E03197F1F7982381E009F480E00895B9
:1001B000FC0190810180F281E02D892F809560FF04
:1001C00012C0F8942281822382838181892B8183CA
:1001D000A2E2B0E01197F1F78281982B9283789494
:1001E00086ED90E011C0F894228182238283818180
:1001F000892B8183AEEFB0E01197F1F78281982BC4
:10020000928378948EE090E00197F1F70895DF9261
:10021000EF92FF920F931F93CF93DF93EC01D62EB3
:10022000E42E08E010E0FF24F39461E08D2D8F218F
:1002300009F460E0CE010E94D800FF0C01501109C2
:10024000A1F7E11010C0F894E981FA8191818881C9
:10025000809589238183E981FA81928188818095C3
:10026000892382837894DF91CF911F910F91FF9022
:10027000EF90DF900895EF92FF920F931F93CF932B
:10028000DF938C017B0140E065E50E940701E701F7
:1002900088E0E80EF11C699140E0C8010E94070166
:1002A000CE15DF05C1F7DF91CF911F910F91FF9020
:1002B000EF900895DC012C911196ED91FC9112972D
:1002C000F8948181922F90958923818378948DE78A
:1002D00042E050E0815021F1DA011197F1F73081CD
:1002E0003223C1F3F8948281892382838181822B16
:1002F00081837894AAE7B7E01197F1F7F8948181A8
:100300009823918382E191E00197F1F7808128237E
:1003100081E009F080E07894E2E6F6E03197F1F7C9
:100320000895AF92BF92CF92DF92EF92FF920F9318
:100330001F93CF93DF938B01BC0180915402909166
:1003400055020E943B0140E06EEB80915402909177
:1003500055020E940701E801680189E0C80ED11C1E
:10036000A0905402B090550288E0E82EF12C10E0E5
:1003700001E0C5010E94B4008111102B000F81E043
:10038000E81AF108B1F71993CC16DD0649F7809108
:100390005402909155020E945A0191E0813009F077
:1003A00090E0892FDF91CF911F910F91FF90EF90F7
:1003B000DF90CF90BF90AF9008950F931F93CF938E
:1003C000DF93CDB7DEB729970FB6F894DEBF0FBE27
:1003D000CDBF8C0180915402909155020E945A0128
:1003E000882309F1BE016F5F7F4FC8010E94910110
:1003F0008823C9F068E0CE0101960E949C0099858F
:10040000891311C08D818F3361F020F48F3159F43D
:1004100089E00CC08F3519F08F3739F004C08BE0BC
:1004200005C08AE003C080E001C08CE029960FB6C9
:10043000F894DEBF0FBECDBFDF91CF911F910F911A
:1004400008950F931F93CF93DF93FC01A685B78583
:100450008D01005C1F4FE8018881998101968F739F
:100460009927AD014E5B5F4FEA012881398128173A
:100470003907D1F3E80128813981A20FB31F6C93AA
:10048000A685B785A05CBF4F11969C938E93A689D5
:10049000B7892C9181E090E0078C02C0880F991FEA
:1004A0000A94E2F7822B8C9381E081A30488F5897A
:1004B000E02D80818064808381E090E0DF91CF91A6
:1004C0001F910F910895CF93DF936DE08CE292E03E
:1004D0000E942102EC016AE08CE292E00E9421027B
:1004E0008C0F9D1FDF91CF910895FC0181A188237E
:1004F00029F0A489B5898C9186FFFBCF11A20895BC
:10050000FC01A485B585FD01E05CFF4F20813181B0
:100510003296808191812817390779F08081918105
:10052000A80FB91F8C91208131812F5F3F4F2F730E
:1005300033273183208390E008958FEF9FEF089554
:10054000DC011C96ED91FC911D97DF01A05CBF4F73
:100550002D913C91119712968D919C91119728178E
:10056000390739F08D919C91E80FF91F808190E057
:1005700008958FEF9FEF0895FC0124853585F901DB
:10058000E05CFF4F80819181329620813181821B16
:10059000930B8F73992708958CE292E00C94BC0220
:1005A0000895CF92DF92EF92FF920F931F93CF9314
:1005B000DF936C01EB017B01E40EF51E00E010E01F
:1005C000CE15DF0561F06991D601ED91FC910190A6
:1005D000F081E02DC6010995080F191FF1CFC80160
:1005E000DF91CF911F910F91FF90EF90DF90CF900F
:1005F000089590E0FC01E859FF4F2491FC01E2537B
:10060000FF4F3491FC01E654FF4FE491EE2309F4CF
:100610003CC0222339F1233091F038F42130A9F085
:10062000223001F584B58F7D12C0263091F027303D
:10063000A1F02430B9F4809180008F7D03C08091B7
:1006400080008F77809380000DC084B58F7784BD44
:1006500009C08091B0008F7703C08091B0008F7D7A
:100660008093B000F0E0EE0FFF1FE456FF4FA5911E
:10067000B4919FB7F894611104C08C9130953823E0
:1006800002C0EC913E2B3C939FBF08953FB7F89476
:1006900080919A0190919B01A0919C01B0919D0144
:1006A00026B5A89B05C02F3F19F00196A11DB11DCD
:1006B0003FBFBA2FA92F982F8827820F911DA11D08
:1006C000B11DBC01CD0142E0660F771F881F991F45
:1006D0004A95D1F70895CF92DF92EF92FF92CF9390
:1006E000DF936B017C010E944603EB01C114D1042E
:1006F000E104F10479F00E9446036C1B7D0B683E17
:100700007340A0F381E0C81AD108E108F108C8518C
:10071000DC4FECCFDF91CF91FF90EF90DF90CF9047
:100720000895BF92CF92DF92EF92FF920F931F93A3
:10073000CF93DF93EC016B018D85811105C0CE0154
:100740000E945A01811105C01B861D861C8680E00F
:1007500060C040E060EFCE010E94070101E0E12CA3
:10076000B12C11E0CE010E94B400F82ECE010E94FF
:10077000B40091E0F91203C08130B1F434C02E2DE1
:1007800030E0F8121BC08B85181738F4FE01E20F19
:10079000F31F8381802341F402C0811729F0F12CDB
:1007A000193058F41C8709C0FE01EE0DF11D83813C
:1007B000802B8383FF24F39409C0B12EFE01E20F46
:1007C000F31F9381802F8095892383836F2DCE0122
:1007D0000E94D8001F5F000F11F4E39401E087E04E
:1007E0008E1508F0BFCF113408F4AECFBB86B11020
:1007F00002C081E08D878B81882309F4A5CFDE01BB
:100800001396F6012B968D918193CA17DB07D9F7C2
:1008100081E0DF91CF911F910F91FF90EF90DF90DA
:10082000CF90BF9008958F929F92AF92BF92CF9238
:10083000DF92EF92FF92CF93DF93CDB7DEB7619750
:100840000FB6F894DEBF0FBECDBF809154029091D9
:1008500055020E945A0140E06CEC80915402909144
:1008600055020E94070140914E0264E480915402B7
:10087000909155020E94070180915002882309F44B
:1008800049C0E0914F02E950E33040F4F0E0EE0F50
:10089000FF1FE050FF4F6081718102C06EEE72E079
:1008A00080915102882381F180914E0281112CC0E8
:1008B0008FB7F8948090960190909701A09098013E
:1008C000B09099018FBF6B01770FEE08FF08809100
:1008D0005402909155020E94B4008130D9F02FB794
:1008E000F8948091960190919701A0919801B09110
:1008F00099012FBF8C199D09AE09BF09881599056B
:10090000AA05BB0520F306C0072E000C880B990B27
:100910000E946B03E0915402F091550213861586F4
:100920001486DF011B96CF0103961E928A179B0740
:10093000E1F7BE01665F7F4FCF010E9491038823DC
:1009400041F067E0CE010A960E949C0099898917C0
:10095000E9F060E070E08EEF92EC6093A00170939C
:10096000A1018093A2019093A30161960FB6F89420
:10097000DEBF0FBECDBFDF91CF91FF90EF90DF9034
:10098000CF90BF90AF909F908F9008958091540228
:10099000909155020E945A01882309F451C0BE016A
:1009A0006F5F7F4FCE010A960E949101882309F460
:1009B00047C068E0CE0101960E949C00998589138A
:1009C0003FC02A8130E0C901982F8827990F990FDD
:1009D000990F698128E0629FB00111249C01262BA8
:1009E000372B8A858031C9F4688570E08F81AB012F
:1009F000481B5109CA019695982F88279795879586
:100A00000E94600C60517109207F53E0220F331F58
:100A10005A95E1F7620F731F01C0B901613854EEB6
:100A200075070CF496CF072E000C880B990B0E94CB
:100A3000390B20E030E040E05CE30E94EE0B8DCF0C
:100A400060E874EEEBCF009769F0FC0101900020A4
:100A5000E9F73197AF01481B590BBC018CE292E0DA
:100A60000C94D10280E090E008958F929F92AF9213
:100A7000BF92EF92FF920F931F93CF93DF93CDB767
:100A8000DEB7A1970FB6F894DEBF0FBECDBF162F0D
:100A9000042F19A2423008F40AE07E0121E2E20E9E
:100AA000F11C802E912CA12CB12C612FA501940159
:100AB0000E94740C029F1019112481E0E81AF108B9
:100AC0001A3014F4105D01C0195CF7011083122F65
:100AD000732FCA01232B242B252B39F7C7010E9422
:100AE0002305A1960FB6F894DEBF0FBECDBFDF91F0
:100AF000CF911F910F91FF90EF90BF90AF909F907B
:100B00008F9008954F925F926F927F928F929F92F3
:100B1000AF92BF92CF92DF92EF92FF92CF93DF938B
:100B20006B017C01B42E9B01AC010E945B0C8823FD
:100B300019F086E191E027C026013701E89477F8A3
:100B40002FEF3FEF4FE75FE7C301B2010E945B0C5D
:100B500081110DC02FEF3FEF4FE75FE7C301B201F7
:100B60000E948A0A18161CF48AE191E00CC02FEF4B
:100B70003FEF4FE75FE4C701B6010E94E90B18168B
:100B800094F48EE191E0DF91CF91FF90EF90DF90B0
:100B9000CF90BF90AF909F908F907F906F905F901D
:100BA0004F900C9423052FEF3FEF4FE75FECC70109
:100BB000B6010E948A0A87FDE4CF20E030E0A90157
:100BC000C701B6010E948A0A87FF0BC06DE28CE262
:100BD00092E00E942102EC01F7FAF094F7F8F09409
:100BE00002C0C0E0D0E0A12C60E070E080E09FE3B4
:100BF000BA1441F020E030E040E251E40E948F0A54
:100C0000A394F6CFA70196010E941E0A6B017C01F6
:100C10000E94080B2B013C014AE00E943505C80FD9
:100C2000D91FBB2009F450C0C301B2010E94370B89
:100C30009B01AC01C701B6010E941D0A2B013C01BA
:100C400081E491E00E942305C80FD91FFB2C20E00E
:100C500030E040E251E4C301B2010E94EE0B2B01EF
:100C60003C010E94010B4B01770FAA08BB08B7FE9D
:100C700015C06DE28CE292E00E9421026C0188278F
:100C80009927DC0188199909AA09BB094AE0BC0126
:100C9000CD010E9435058C0D9D1D05C04AE0C501A2
:100CA000B4010E943505C80FD91FC501B4010E94C7
:100CB000390B9B01AC01C301B2010E941D0A2B013B
:100CC0003C01FA94F110C3CFCE01DF91CF91FF9098
:100CD000EF90DF90CF90BF90AF909F908F907F90DC
:100CE0006F905F904F900895CF93DF930E942305FC
:100CF000EC010E9463028C0F9D1FDF91CF9108953C
:100D00001F920F920FB60F9211242F933F938F9340
:100D10009F93EF93FF932091E4013091E50180913F
:100D2000E6019091E7012817390731F48091C1005D
:100D30008F7D8093C10014C0E091E601F091E7013E
:100D4000EC55FE4F20818091E6019091E7010196DC
:100D50008F7399279093E7018093E6012093C60053
:100D6000FF91EF919F918F913F912F910F900FBE27
:100D70000F901F9018951F920F920FB60F9211248B
:100D80002F934F935F938F939F93EF93FF93809154
:100D9000C00082FD1CC02091C60080912802909165
:100DA000290240912A0250912B0201968F739927B4
:100DB0004817590771F0E0912802F0912902E85193
:100DC000FE4F2083909329028093280202C08091D5
:100DD000C600FF91EF919F918F915F914F912F915D
:100DE0000F900FBE0F901F9018951F920F920FB685
:100DF0000F9211242F933F938F939F93AF93BF93A1
:100E00008091960190919701A0919801B0919901DC
:100E10003091950123E0230F2D3720F40196A11D79
:100E2000B11D05C026E8230F0296A11DB11D209318
:100E300095018093960190939701A0939801B093A8
:100E4000990180919A0190919B01A0919C01B09190
:100E50009D010196A11DB11D80939A0190939B0164
:100E6000A0939C01B0939D01BF91AF919F918F91F1
:100E70003F912F910F900FBE0F901F9018951F92CA
:100E80000F920FB60F9211242F933F934F935F93BE
:100E90006F937F938F939F93AF93BF93EF93FF9342
:100EA000809194018F5F80939401809194018837A1
:100EB00029F51092940180919E0181111BC08091AF
:100EC0009F0181110CC083E491E00E94740660E0F0
:100ED00088E00E94F90281E080939F010FC08AE5BB
:100EE00091E00E94740661E088E00E94F90210928D
:100EF0009F0104C082E791E00E947406FF91EF9188
:100F0000BF91AF919F918F917F916F915F914F9121
:100F10003F912F910F900FBE0F901F901895CF9378
:100F2000DF9310922F0210922E0288EE93E0A0E041
:100F3000B0E08093300290933102A0933202B093DC
:100F400033028AE091E090932D0280932C0288EE88
:100F500091E0909339028093380284EA91E0909373
:100F60003B0280933A0285EC90E090933D0280939F
:100F70003C0284EC90E090933F0280933E0280EC30
:100F800090E0909341028093400281EC90E0909336
:100F900043028093420282EC90E09093450280935A
:100FA000440286EC90E0909347028093460284E0EE
:100FB0008093480283E08093490287E080934A024D
:100FC00085E080934B0281E080934C02E8EDF0E0F5
:100FD0002491E4ECF0E084918823C1F090E0880F44
:100FE000991FFC01EA55FF4FC591D491FC01E456CD
:100FF000FF4FA591B4919FB7F8948881E22FE095B7
:101000008E2388838C91E823EC939FBFE8EDF0E07A
:10101000E491E0936202E4ECF0E0E491F0E0EE0FA2
:10102000FF1FE055FF4F8591949190936402809348
:10103000630210926D0210926F0210926E02EDE642
:10104000F2E0129282E0E536F807D9F782E692E004
:1010500090935502809354021092520210925302C0
:1010600010924E0289E080934F0281E080935002FB
:10107000809351021092610210926002DF91CF9131
:101080000895CF93DF93CDB7DEB728970FB6F894C6
:10109000DEBF0FBECDBF789484B5826084BD84B5B9
:1010A000816084BD85B5826085BD85B5816085BD63
:1010B00080916E00816080936E001092810080911B
:1010C00081008260809381008091810081608093A3
:1010D0008100809180008160809380008091B100C8
:1010E00084608093B1008091B00081608093B000F3
:1010F00080917A00846080937A0080917A00826087
:1011000080937A0080917A00816080937A00809148
:101110007A00806880937A001092C100E0914002CA
:10112000F091410281E090E09C0100904C0202C0ED
:10113000220F331F0A94E2F72083E0913C02F091E2
:101140003D021082E0913E02F0913F022FEC20839D
:1011500010924D02E0914202F091430240819C01C5
:101160000090480202C0220F331F0A94E2F7242B9A
:101170002083E0914202F091430240819C01009063
:10118000490202C0220F331F0A94E2F7242B208366
:10119000E0914202F091430240819C0100904A029A
:1011A00002C0220F331F0A94E2F7242B2083E09120
:1011B0004202F0914302208100904B0202C0880F4E
:1011C000991F0A94E2F7809582238083E09154026C
:1011D000F0915502138615861486DF011B9633960F
:1011E0001E92AE17BF07E1F71092520210925302FF
:1011F00001E0BE016F5F7F4F8091540290915502D4
:101200000E949103882309F465C067E0CE0101962E
:101210000E949C0098858913ECCF80914E02811129
:1012200027C080915402909155020E945A01BE013C
:101230006F5F7F4F80915402909155020E943B0155
:1012400040E064EB80915402909155020E940701A6
:1012500080915402909155020E94B400182F809101
:101260005402909155020E945A01112309F4D5C0ED
:1012700010914F028981803109F4D8C0CE010196C6
:101280000E94DD01811718F480914F0209C0898105
:10129000803111F48CE004C0CE0101960E94DD0182
:1012A00080934F02809152028F5F80935202898116
:1012B000883209F4B5C038F4803109F4B1C0823203
:1012C00009F097CFADC08B3309F4AAC0823409F07E
:1012D00090CFA6C0E6EDF0E02491E2ECF0E084913E
:1012E000882399F090E0880F991FFC01EA55FF4F81
:1012F000A591B491FC01E456FF4F859194918FB76D
:10130000F894EC91E22BEC938FBF61E088E00E94AF
:10131000F9020E941304F894109280001092810048
:1013200088E09DE3909389008093880080918100FC
:10133000886080938100809181008160809381002A
:101340008091810084608093810080916F00826031
:1013500080936F00789411E00E9413046091A001C3
:101360007091A1018091A2019091A30142E00E949D
:1013700082050E94630220E030E040E052E4609188
:10138000A0017091A1018091A2019091A3010E94FE
:10139000E90B1816CCF580919F01811135C082E2CE
:1013A00091E00E94740660E088E00E94F9021093C8
:1013B0009E010E9413046091A0017091A10180918F
:1013C000A2019091A30142E00E9482050E94630263
:1013D00068EE73E080E090E00E946B0320E030E074
:1013E00048EF51E46091A0017091A1018091A201A8
:1013F0009091A3010E94E90B1816DCF261E088E0ED
:101400000E94F90210929E0168EE73E080E090E085
:101410000E946B030E94CC029FCF00934E0228CF04
:10142000809153028F5F80935302E3CE1D3008F00A
:101430002BCF30CFF8940C94B00C5058BB27AA2770
:101440000E94350A0C94AF0B0E94A10B38F00E9449
:10145000A80B20F039F49F3F19F426F40C949E0B4E
:101460000EF4E095E7FB0C94980BE92F0E94C00B5B
:1014700058F3BA17620773078407950720F079F4C9
:10148000A6F50C94E20B0EF4E0950B2EBA2FA02DCE
:101490000B01B90190010C01CA01A0011124FF2721
:1014A000591B99F0593F50F4503E68F11A16F0401C
:1014B000A22F232F342F4427585FF3CF469537951B
:1014C0002795A795F0405395C9F77EF41F16BA0BE0
:1014D000620B730B840BBAF09150A1F0FF0FBB1F8E
:1014E000661F771F881FC2F70EC0BA0F621F731FD7
:1014F000841F48F4879577956795B795F7959E3F34
:1015000008F0B0CF9395880F08F09927EE0F9795C4
:10151000879508950E94740B08F481E008950E9455
:10152000A30A0C94AF0B0E94A80B58F00E94A10BC9
:1015300040F029F45F3F29F00C94980B51110C9462
:10154000E30B0C949E0B0E94C00B68F39923B1F33C
:10155000552391F3951B550BBB27AA2762177307D9
:10156000840738F09F5F5F4F220F331F441FAA1F6D
:10157000A9F335D00E2E3AF0E0E832D09150504029
:10158000E695001CCAF72BD0FE2F29D0660F771FD7
:10159000881FBB1F261737074807AB07B0E809F0BD
:1015A000BB0B802DBF01FF2793585F4F3AF09E3F42
:1015B000510578F00C94980B0C94E30B5F3FE4F327
:1015C000983ED4F3869577956795B795F7959F5F85
:1015D000C9F7880F911D9695879597F90895E1E0D1
:1015E000660F771F881FBB1F621773078407BA0730
:1015F00020F0621B730B840BBA0BEE1F88F7E0958B
:1016000008950E94080B6894B1110C94E30B08959F
:101610000E94C80B88F09F5798F0B92F9927B751AF
:10162000B0F0E1F0660F771F881F991F1AF0BA9586
:10163000C9F714C0B13091F00E94E20BB1E00895F7
:101640000C94E20B672F782F8827B85F39F0B93FE9
:10165000CCF3869577956795B395D9F73EF4909539
:101660008095709561957F4F8F4F9F4F0895E894B7
:1016700009C097FB3EF490958095709561957F4FDA
:101680008F4F9F4F9923A9F0F92F96E9BB27939588
:10169000F695879577956795B795F111F8CFFAF498
:1016A000BB0F11F460FF1BC06F5F7F4F8F4F9F4FC9
:1016B00016C0882311F096E911C0772321F09EE827
:1016C000872F762F05C0662371F096E8862F70E08D
:1016D00060E02AF09A95660F771F881FDAF7880F67
:1016E0009695879597F90895990F0008550FAA0BBD
:1016F000E0E8FEEF16161706E807F907C0F0121625
:101700001306E407F50798F0621B730B840B950B27
:1017100039F40A2661F0232B242B252B21F408957C
:101720000A2609F4A140A6958FEF811D811D089519
:1017300097F99F6780E870E060E008959FEF80EC84
:10174000089500240A941616170618060906089527
:1017500000240A9412161306140605060895092E8D
:101760000394000C11F4882352F0BB0F40F4BF2BFC
:1017700011F460FF04C06F5F7F4F8F4F9F4F08953C
:1017800057FD9058440F551F59F05F3F71F0479532
:10179000880F97FB991F61F09F3F79F08795089517
:1017A000121613061406551FF2CF4695F1DF08C036
:1017B000161617061806991FF1CF86957105610553
:1017C00008940895E894BB2766277727CB0197F9FB
:1017D00008950E94740B08F48FEF08950E94010C85
:1017E0000C94AF0B0E94A10B38F00E94A80B20F0C4
:1017F000952311F00C94980B0C949E0B11240C94CF
:10180000E30B0E94C00B70F3959FC1F3950F50E05E
:10181000551F629FF001729FBB27F00DB11D639FA2
:10182000AA27F00DB11DAA1F649F6627B00DA11D48
:10183000661F829F2227B00DA11D621F739FB00DEE
:10184000A11D621F839FA00D611D221F749F33275E
:10185000A00D611D231F849F600D211D822F762FF7
:101860006A2F11249F5750409AF0F1F088234AF0D4
:10187000EE0FFF1FBB1F661F771F881F9150504040
:10188000A9F79E3F510580F00C94980B0C94E30B44
:101890005F3FE4F3983ED4F3869577956795B795C7
:1018A000F795E7959F5FC1F7FE2B880F911D9695E1
:1018B000879597F908950E94740B880B990B0895EA
:1018C00097FB072E16F4009407D077FD09D00E94ED
:1018D000960C07FC05D03EF4909581959F4F089596
:1018E000709561957F4F0895A1E21A2EAA1BBB1B2C
:1018F000FD010DC0AA1FBB1FEE1FFF1FA217B307DC
:10190000E407F50720F0A21BB30BE40BF50B661FF1
:10191000771F881F991F1A9469F7609570958095B5
:1019200090959B01AC01BD01CF010895AA1BBB1B83
:1019300051E107C0AA1FBB1FA617B70710F0A61BCF
:10194000B70B881F991F5A95A9F780959095BC01F0
:10195000CD010895EE0FFF1F0590F491E02D09943D
:04196000F894FFCF29
:101964005E00BC007701000000002102D102BC022D
:101974008002A00275026E616E00696E66006F7669
:10198400660048696768742074656D706572617477
:101994007572652E205374617274696E6720666176
:1019A4006E2E0054696D65722068617320626565EE
:1019B4006E20656E61626C65640054696D657220A9
:1019C400686173206265656E2064697361626C6529
:1019D4006400486967682074656D702066616E20D4
:1019E4006973206F6E2E20536B69702074696D6566
:0419F400722E00004F
:00000001FF
